{
  "address": "0x4e5d9F7211f60fEb97d99B98CE04F9e07957BcBE",
  "abi": [
    {
      "inputs": [],
      "stateMutability": "nonpayable",
      "type": "constructor"
    },
    {
      "anonymous": false,
      "inputs": [
        {
          "indexed": true,
          "internalType": "address",
          "name": "previousOwner",
          "type": "address"
        },
        {
          "indexed": true,
          "internalType": "address",
          "name": "newOwner",
          "type": "address"
        }
      ],
      "name": "OwnershipTransferred",
      "type": "event"
    },
    {
      "anonymous": false,
      "inputs": [
        {
          "indexed": false,
          "internalType": "bytes32",
          "name": "vestingScheduleId",
          "type": "bytes32"
        },
        {
          "indexed": true,
          "internalType": "address",
          "name": "beneficiary",
          "type": "address"
        },
        {
          "indexed": false,
          "internalType": "uint256",
          "name": "cliff",
          "type": "uint256"
        },
        {
          "indexed": false,
          "internalType": "uint256",
          "name": "start",
          "type": "uint256"
        },
        {
          "indexed": false,
          "internalType": "uint256",
          "name": "duration",
          "type": "uint256"
        },
        {
          "indexed": false,
          "internalType": "uint256",
          "name": "slicePeriodSeconds",
          "type": "uint256"
        },
        {
          "indexed": false,
          "internalType": "bool",
          "name": "revocable",
          "type": "bool"
        },
        {
          "indexed": false,
          "internalType": "uint256",
          "name": "amountTotal",
          "type": "uint256"
        }
      ],
      "name": "VestingScheduleCreated",
      "type": "event"
    },
    {
      "anonymous": false,
      "inputs": [
        {
          "indexed": false,
          "internalType": "bytes32",
          "name": "vestingScheduleId",
          "type": "bytes32"
        },
        {
          "indexed": true,
          "internalType": "address",
          "name": "beneficiary",
          "type": "address"
        },
        {
          "indexed": false,
          "internalType": "uint256",
          "name": "amount",
          "type": "uint256"
        }
      ],
      "name": "VestingScheduleReleased",
      "type": "event"
    },
    {
      "anonymous": false,
      "inputs": [
        {
          "indexed": false,
          "internalType": "bytes32",
          "name": "vestingScheduleId",
          "type": "bytes32"
        },
        {
          "indexed": true,
          "internalType": "address",
          "name": "beneficiary",
          "type": "address"
        }
      ],
      "name": "VestingScheduleRevoked",
      "type": "event"
    },
    {
      "stateMutability": "payable",
      "type": "fallback"
    },
    {
      "inputs": [
        {
          "internalType": "address",
          "name": "holder",
          "type": "address"
        }
      ],
      "name": "computeNextVestingScheduleIdForHolder",
      "outputs": [
        {
          "internalType": "bytes32",
          "name": "",
          "type": "bytes32"
        }
      ],
      "stateMutability": "view",
      "type": "function"
    },
    {
      "inputs": [
        {
          "internalType": "bytes32",
          "name": "vestingScheduleId",
          "type": "bytes32"
        }
      ],
      "name": "computeReleasableAmount",
      "outputs": [
        {
          "internalType": "uint256",
          "name": "",
          "type": "uint256"
        }
      ],
      "stateMutability": "view",
      "type": "function"
    },
    {
      "inputs": [
        {
          "internalType": "address",
          "name": "holder",
          "type": "address"
        },
        {
          "internalType": "uint256",
          "name": "index",
          "type": "uint256"
        }
      ],
      "name": "computeVestingScheduleIdForAddressAndIndex",
      "outputs": [
        {
          "internalType": "bytes32",
          "name": "",
          "type": "bytes32"
        }
      ],
      "stateMutability": "pure",
      "type": "function"
    },
    {
      "inputs": [
        {
          "internalType": "address",
          "name": "_beneficiary",
          "type": "address"
        },
        {
          "internalType": "uint256",
          "name": "_start",
          "type": "uint256"
        },
        {
          "internalType": "uint256",
          "name": "_cliff",
          "type": "uint256"
        },
        {
          "internalType": "uint256",
          "name": "_duration",
          "type": "uint256"
        },
        {
          "internalType": "uint256",
          "name": "_slicePeriodSeconds",
          "type": "uint256"
        },
        {
          "internalType": "bool",
          "name": "_revocable",
          "type": "bool"
        },
        {
          "internalType": "uint256",
          "name": "_amount",
          "type": "uint256"
        }
      ],
      "name": "createVestingSchedule",
      "outputs": [],
      "stateMutability": "nonpayable",
      "type": "function"
    },
    {
      "inputs": [
        {
          "internalType": "address",
          "name": "holder",
          "type": "address"
        }
      ],
      "name": "getLastVestingScheduleForHolder",
      "outputs": [
        {
          "components": [
            {
              "internalType": "bool",
              "name": "initialized",
              "type": "bool"
            },
            {
              "internalType": "address",
              "name": "beneficiary",
              "type": "address"
            },
            {
              "internalType": "uint256",
              "name": "cliff",
              "type": "uint256"
            },
            {
              "internalType": "uint256",
              "name": "start",
              "type": "uint256"
            },
            {
              "internalType": "uint256",
              "name": "duration",
              "type": "uint256"
            },
            {
              "internalType": "uint256",
              "name": "slicePeriodSeconds",
              "type": "uint256"
            },
            {
              "internalType": "bool",
              "name": "revocable",
              "type": "bool"
            },
            {
              "internalType": "uint256",
              "name": "amountTotal",
              "type": "uint256"
            },
            {
              "internalType": "uint256",
              "name": "released",
              "type": "uint256"
            },
            {
              "internalType": "bool",
              "name": "revoked",
              "type": "bool"
            }
          ],
          "internalType": "struct CoinVesting.VestingSchedule",
          "name": "",
          "type": "tuple"
        }
      ],
      "stateMutability": "view",
      "type": "function"
    },
    {
      "inputs": [
        {
          "internalType": "uint256",
          "name": "index",
          "type": "uint256"
        }
      ],
      "name": "getVestingIdAtIndex",
      "outputs": [
        {
          "internalType": "bytes32",
          "name": "",
          "type": "bytes32"
        }
      ],
      "stateMutability": "view",
      "type": "function"
    },
    {
      "inputs": [
        {
          "internalType": "bytes32",
          "name": "vestingScheduleId",
          "type": "bytes32"
        }
      ],
      "name": "getVestingSchedule",
      "outputs": [
        {
          "components": [
            {
              "internalType": "bool",
              "name": "initialized",
              "type": "bool"
            },
            {
              "internalType": "address",
              "name": "beneficiary",
              "type": "address"
            },
            {
              "internalType": "uint256",
              "name": "cliff",
              "type": "uint256"
            },
            {
              "internalType": "uint256",
              "name": "start",
              "type": "uint256"
            },
            {
              "internalType": "uint256",
              "name": "duration",
              "type": "uint256"
            },
            {
              "internalType": "uint256",
              "name": "slicePeriodSeconds",
              "type": "uint256"
            },
            {
              "internalType": "bool",
              "name": "revocable",
              "type": "bool"
            },
            {
              "internalType": "uint256",
              "name": "amountTotal",
              "type": "uint256"
            },
            {
              "internalType": "uint256",
              "name": "released",
              "type": "uint256"
            },
            {
              "internalType": "bool",
              "name": "revoked",
              "type": "bool"
            }
          ],
          "internalType": "struct CoinVesting.VestingSchedule",
          "name": "",
          "type": "tuple"
        }
      ],
      "stateMutability": "view",
      "type": "function"
    },
    {
      "inputs": [
        {
          "internalType": "address",
          "name": "holder",
          "type": "address"
        },
        {
          "internalType": "uint256",
          "name": "index",
          "type": "uint256"
        }
      ],
      "name": "getVestingScheduleByAddressAndIndex",
      "outputs": [
        {
          "components": [
            {
              "internalType": "bool",
              "name": "initialized",
              "type": "bool"
            },
            {
              "internalType": "address",
              "name": "beneficiary",
              "type": "address"
            },
            {
              "internalType": "uint256",
              "name": "cliff",
              "type": "uint256"
            },
            {
              "internalType": "uint256",
              "name": "start",
              "type": "uint256"
            },
            {
              "internalType": "uint256",
              "name": "duration",
              "type": "uint256"
            },
            {
              "internalType": "uint256",
              "name": "slicePeriodSeconds",
              "type": "uint256"
            },
            {
              "internalType": "bool",
              "name": "revocable",
              "type": "bool"
            },
            {
              "internalType": "uint256",
              "name": "amountTotal",
              "type": "uint256"
            },
            {
              "internalType": "uint256",
              "name": "released",
              "type": "uint256"
            },
            {
              "internalType": "bool",
              "name": "revoked",
              "type": "bool"
            }
          ],
          "internalType": "struct CoinVesting.VestingSchedule",
          "name": "",
          "type": "tuple"
        }
      ],
      "stateMutability": "view",
      "type": "function"
    },
    {
      "inputs": [],
      "name": "getVestingSchedulesCount",
      "outputs": [
        {
          "internalType": "uint256",
          "name": "",
          "type": "uint256"
        }
      ],
      "stateMutability": "view",
      "type": "function"
    },
    {
      "inputs": [
        {
          "internalType": "address",
          "name": "_beneficiary",
          "type": "address"
        }
      ],
      "name": "getVestingSchedulesCountByBeneficiary",
      "outputs": [
        {
          "internalType": "uint256",
          "name": "",
          "type": "uint256"
        }
      ],
      "stateMutability": "view",
      "type": "function"
    },
    {
      "inputs": [],
      "name": "getVestingSchedulesTotalAmount",
      "outputs": [
        {
          "internalType": "uint256",
          "name": "",
          "type": "uint256"
        }
      ],
      "stateMutability": "view",
      "type": "function"
    },
    {
      "inputs": [],
      "name": "getWithdrawableAmount",
      "outputs": [
        {
          "internalType": "uint256",
          "name": "",
          "type": "uint256"
        }
      ],
      "stateMutability": "view",
      "type": "function"
    },
    {
      "inputs": [],
      "name": "owner",
      "outputs": [
        {
          "internalType": "address",
          "name": "",
          "type": "address"
        }
      ],
      "stateMutability": "view",
      "type": "function"
    },
    {
      "inputs": [
        {
          "internalType": "bytes32",
          "name": "vestingScheduleId",
          "type": "bytes32"
        },
        {
          "internalType": "uint256",
          "name": "amount",
          "type": "uint256"
        }
      ],
      "name": "release",
      "outputs": [],
      "stateMutability": "nonpayable",
      "type": "function"
    },
    {
      "inputs": [],
      "name": "renounceOwnership",
      "outputs": [],
      "stateMutability": "nonpayable",
      "type": "function"
    },
    {
      "inputs": [
        {
          "internalType": "bytes32",
          "name": "vestingScheduleId",
          "type": "bytes32"
        }
      ],
      "name": "revoke",
      "outputs": [],
      "stateMutability": "nonpayable",
      "type": "function"
    },
    {
      "inputs": [
        {
          "internalType": "address",
          "name": "newOwner",
          "type": "address"
        }
      ],
      "name": "transferOwnership",
      "outputs": [],
      "stateMutability": "nonpayable",
      "type": "function"
    },
    {
      "inputs": [
        {
          "internalType": "uint256",
          "name": "amount",
          "type": "uint256"
        }
      ],
      "name": "withdraw",
      "outputs": [],
      "stateMutability": "nonpayable",
      "type": "function"
    },
    {
      "stateMutability": "payable",
      "type": "receive"
    }
  ],
  "transactionHash": "0xf3ba894e4437afbb58601d1707999bddd440f53f9e07c69382a1fd71259b1298",
  "args": [],
  "numDeployments": 2,
  "solcInputHash": "b4a27fece6f66f0ce9e30d076e5820f7",
  "bytecode": "0x60806040523480156200001157600080fd5b5062000032620000266200003f60201b60201c565b6200004760201b60201c565b600180819055506200010b565b600033905090565b60008060009054906101000a900473ffffffffffffffffffffffffffffffffffffffff169050816000806101000a81548173ffffffffffffffffffffffffffffffffffffffff021916908373ffffffffffffffffffffffffffffffffffffffff1602179055508173ffffffffffffffffffffffffffffffffffffffff168173ffffffffffffffffffffffffffffffffffffffff167f8be0079c531659141344cd1fd0a4f28419497f9722a3daafe3b4186f6b6457e060405160405180910390a35050565b6129e0806200011b6000396000f3fe60806040526004361061010d5760003560e01c80638da5cb5b11610095578063ea1bb3d511610064578063ea1bb3d514610371578063f2fde38b146103ae578063f51321d7146103d7578063f7c469f014610414578063f9079b371461045157610114565b80638da5cb5b146102b557806390be10cc146102e05780639ef346b41461030b578063b75c7dc61461034857610114565b80635a7bb69a116100dc5780635a7bb69a146101be57806366afd8ef146101fb578063715018a6146102245780637e913dc61461023b5780638af104da1461027857610114565b8063130836171461011657806317e289e9146101415780632e1a7d4d1461016a57806348deb4711461019357610114565b3661011457005b005b34801561012257600080fd5b5061012b61048e565b6040516101389190611a89565b60405180910390f35b34801561014d57600080fd5b5061016860048036038101906101639190611b6b565b61049b565b005b34801561017657600080fd5b50610191600480360381019061018c9190611c0d565b6108ae565b005b34801561019f57600080fd5b506101a861099e565b6040516101b59190611a89565b60405180910390f35b3480156101ca57600080fd5b506101e560048036038101906101e09190611c3a565b6109a8565b6040516101f29190611a89565b60405180910390f35b34801561020757600080fd5b50610222600480360381019061021d9190611c9d565b6109f1565b005b34801561023057600080fd5b50610239610e7a565b005b34801561024757600080fd5b50610262600480360381019061025d9190611c3a565b610e8e565b60405161026f9190611dd6565b60405180910390f35b34801561028457600080fd5b5061029f600480360381019061029a9190611df2565b610ff3565b6040516102ac9190611e41565b60405180910390f35b3480156102c157600080fd5b506102ca611026565b6040516102d79190611e6b565b60405180910390f35b3480156102ec57600080fd5b506102f561104f565b6040516103029190611a89565b60405180910390f35b34801561031757600080fd5b50610332600480360381019061032d9190611e86565b611064565b60405161033f9190611dd6565b60405180910390f35b34801561035457600080fd5b5061036f600480360381019061036a9190611e86565b611175565b005b34801561037d57600080fd5b5061039860048036038101906103939190611e86565b61147f565b6040516103a59190611a89565b60405180910390f35b3480156103ba57600080fd5b506103d560048036038101906103d09190611c3a565b611661565b005b3480156103e357600080fd5b506103fe60048036038101906103f99190611df2565b6116e4565b60405161040b9190611dd6565b60405180910390f35b34801561042057600080fd5b5061043b60048036038101906104369190611c3a565b611706565b6040516104489190611e41565b60405180910390f35b34801561045d57600080fd5b5061047860048036038101906104739190611c0d565b611758565b6040516104859190611e41565b60405180910390f35b6000600280549050905090565b6104a36117c9565b806104ac61104f565b10156104ed576040517f08c379a00000000000000000000000000000000000000000000000000000000081526004016104e490611f5c565b60405180910390fd5b60008411610530576040517f08c379a000000000000000000000000000000000000000000000000000000000815260040161052790611fee565b60405180910390fd5b60008111610573576040517f08c379a000000000000000000000000000000000000000000000000000000000815260040161056a9061205a565b60405180910390fd5b60018310156105b7576040517f08c379a00000000000000000000000000000000000000000000000000000000081526004016105ae906120ec565b60405180910390fd5b848410156105fa576040517f08c379a00000000000000000000000000000000000000000000000000000000081526004016105f19061217e565b60405180910390fd5b600061060588611706565b90506000868861061591906121cd565b90506040518061014001604052806001151581526020018a73ffffffffffffffffffffffffffffffffffffffff168152602001828152602001898152602001878152602001868152602001851515815260200184815260200160008152602001600015158152506003600084815260200190815260200160002060008201518160000160006101000a81548160ff02191690831515021790555060208201518160000160016101000a81548173ffffffffffffffffffffffffffffffffffffffff021916908373ffffffffffffffffffffffffffffffffffffffff16021790555060408201518160010155606082015181600201556080820151816003015560a0820151816004015560c08201518160050160006101000a81548160ff02191690831515021790555060e0820151816006015561010082015181600701556101208201518160080160006101000a81548160ff0219169083151502179055509050508260045461078591906121cd565b60048190555060028290806001815401808255809150506001900390600052602060002001600090919091909150556000600560008b73ffffffffffffffffffffffffffffffffffffffff1673ffffffffffffffffffffffffffffffffffffffff16815260200190815260200160002054905060018161080591906121cd565b600560008c73ffffffffffffffffffffffffffffffffffffffff1673ffffffffffffffffffffffffffffffffffffffff168152602001908152602001600020819055508973ffffffffffffffffffffffffffffffffffffffff167f5dd2f0f5121d44031a18f4ec7685b97ce3bd9400feda582818aa28501f1fcf8c84848c8b8b8b8b60405161089a9796959493929190612210565b60405180910390a250505050505050505050565b6002600154036108f3576040517f08c379a00000000000000000000000000000000000000000000000000000000081526004016108ea906122cb565b60405180910390fd5b60026001819055506109036117c9565b8061090c61104f565b101561094d576040517f08c379a00000000000000000000000000000000000000000000000000000000081526004016109449061235d565b60405180910390fd5b3373ffffffffffffffffffffffffffffffffffffffff166108fc829081150290604051600060405180830381858888f19350505050158015610993573d6000803e3d6000fd5b506001808190555050565b6000600454905090565b6000600560008373ffffffffffffffffffffffffffffffffffffffff1673ffffffffffffffffffffffffffffffffffffffff168152602001908152602001600020549050919050565b600260015403610a36576040517f08c379a0000000000000000000000000000000000000000000000000000000008152600401610a2d906122cb565b60405180910390fd5b6002600181905550816003600082815260200190815260200160002060000160009054906101000a900460ff16610aa2576040517f08c379a0000000000000000000000000000000000000000000000000000000008152600401610a99906123ef565b60405180910390fd5b6003600082815260200190815260200160002060080160009054906101000a900460ff1615610b06576040517f08c379a0000000000000000000000000000000000000000000000000000000008152600401610afd90612481565b60405180910390fd5b600060036000858152602001908152602001600020905060008160000160019054906101000a900473ffffffffffffffffffffffffffffffffffffffff1673ffffffffffffffffffffffffffffffffffffffff163373ffffffffffffffffffffffffffffffffffffffff161490506000610b7e611026565b73ffffffffffffffffffffffffffffffffffffffff163373ffffffffffffffffffffffffffffffffffffffff161490508180610bb75750805b610bf6576040517f08c379a0000000000000000000000000000000000000000000000000000000008152600401610bed90612539565b60405180910390fd5b6000610cf084604051806101400160405290816000820160009054906101000a900460ff161515151581526020016000820160019054906101000a900473ffffffffffffffffffffffffffffffffffffffff1673ffffffffffffffffffffffffffffffffffffffff1673ffffffffffffffffffffffffffffffffffffffff168152602001600182015481526020016002820154815260200160038201548152602001600482015481526020016005820160009054906101000a900460ff1615151515815260200160068201548152602001600782015481526020016008820160009054906101000a900460ff161515151581525050611847565b905085811015610d35576040517f08c379a0000000000000000000000000000000000000000000000000000000008152600401610d2c906125cb565b60405180910390fd5b858460070154610d4591906121cd565b846007018190555060008460000160019054906101000a900473ffffffffffffffffffffffffffffffffffffffff16905086600454610d8491906125eb565b6004819055508460000160019054906101000a900473ffffffffffffffffffffffffffffffffffffffff1673ffffffffffffffffffffffffffffffffffffffff166108fc889081150290604051600060405180830381858888f19350505050158015610df4573d6000803e3d6000fd5b508460000160019054906101000a900473ffffffffffffffffffffffffffffffffffffffff1673ffffffffffffffffffffffffffffffffffffffff167fcb2a5922ee4e0ad4c8e0e6c50604051f127a4ec5a779bb2afd1475b48eab9f958989604051610e6192919061261f565b60405180910390a2505050505050600180819055505050565b610e826117c9565b610e8c600061192d565b565b610e96611a01565b60036000610eef846001600560008873ffffffffffffffffffffffffffffffffffffffff1673ffffffffffffffffffffffffffffffffffffffff16815260200190815260200160002054610eea91906125eb565b610ff3565b8152602001908152602001600020604051806101400160405290816000820160009054906101000a900460ff161515151581526020016000820160019054906101000a900473ffffffffffffffffffffffffffffffffffffffff1673ffffffffffffffffffffffffffffffffffffffff1673ffffffffffffffffffffffffffffffffffffffff168152602001600182015481526020016002820154815260200160038201548152602001600482015481526020016005820160009054906101000a900460ff1615151515815260200160068201548152602001600782015481526020016008820160009054906101000a900460ff1615151515815250509050919050565b600082826040516020016110089291906126b1565b60405160208183030381529060405280519060200120905092915050565b60008060009054906101000a900473ffffffffffffffffffffffffffffffffffffffff16905090565b60006004544761105f91906125eb565b905090565b61106c611a01565b60036000838152602001908152602001600020604051806101400160405290816000820160009054906101000a900460ff161515151581526020016000820160019054906101000a900473ffffffffffffffffffffffffffffffffffffffff1673ffffffffffffffffffffffffffffffffffffffff1673ffffffffffffffffffffffffffffffffffffffff168152602001600182015481526020016002820154815260200160038201548152602001600482015481526020016005820160009054906101000a900460ff1615151515815260200160068201548152602001600782015481526020016008820160009054906101000a900460ff1615151515815250509050919050565b61117d6117c9565b806003600082815260200190815260200160002060000160009054906101000a900460ff166111e1576040517f08c379a00000000000000000000000000000000000000000000000000000000081526004016111d8906123ef565b60405180910390fd5b6003600082815260200190815260200160002060080160009054906101000a900460ff1615611245576040517f08c379a000000000000000000000000000000000000000000000000000000000815260040161123c90612481565b60405180910390fd5b60006003600084815260200190815260200160002090508060050160009054906101000a900460ff166112ad576040517f08c379a00000000000000000000000000000000000000000000000000000000081526004016112a49061274f565b60405180910390fd5b60006113a782604051806101400160405290816000820160009054906101000a900460ff161515151581526020016000820160019054906101000a900473ffffffffffffffffffffffffffffffffffffffff1673ffffffffffffffffffffffffffffffffffffffff1673ffffffffffffffffffffffffffffffffffffffff168152602001600182015481526020016002820154815260200160038201548152602001600482015481526020016005820160009054906101000a900460ff1615151515815260200160068201548152602001600782015481526020016008820160009054906101000a900460ff161515151581525050611847565b905060008111156113bd576113bc84826109f1565b5b6000826007015483600601546113d391906125eb565b9050806004546113e391906125eb565b60048190555060018360080160006101000a81548160ff0219169083151502179055508260000160019054906101000a900473ffffffffffffffffffffffffffffffffffffffff1673ffffffffffffffffffffffffffffffffffffffff167fe19c74a44fc9581519d26fafa9a061d69123bff496da494827898b9b7fcab9f9866040516114709190611e41565b60405180910390a25050505050565b6000816003600082815260200190815260200160002060000160009054906101000a900460ff166114e5576040517f08c379a00000000000000000000000000000000000000000000000000000000081526004016114dc906123ef565b60405180910390fd5b6003600082815260200190815260200160002060080160009054906101000a900460ff1615611549576040517f08c379a000000000000000000000000000000000000000000000000000000000815260040161154090612481565b60405180910390fd5b600060036000858152602001908152602001600020905061165881604051806101400160405290816000820160009054906101000a900460ff161515151581526020016000820160019054906101000a900473ffffffffffffffffffffffffffffffffffffffff1673ffffffffffffffffffffffffffffffffffffffff1673ffffffffffffffffffffffffffffffffffffffff168152602001600182015481526020016002820154815260200160038201548152602001600482015481526020016005820160009054906101000a900460ff1615151515815260200160068201548152602001600782015481526020016008820160009054906101000a900460ff161515151581525050611847565b92505050919050565b6116696117c9565b600073ffffffffffffffffffffffffffffffffffffffff168173ffffffffffffffffffffffffffffffffffffffff16036116d8576040517f08c379a00000000000000000000000000000000000000000000000000000000081526004016116cf906127e1565b60405180910390fd5b6116e18161192d565b50565b6116ec611a01565b6116fe6116f98484610ff3565b611064565b905092915050565b600061175182600560008573ffffffffffffffffffffffffffffffffffffffff1673ffffffffffffffffffffffffffffffffffffffff16815260200190815260200160002054610ff3565b9050919050565b600061176261048e565b82106117a3576040517f08c379a000000000000000000000000000000000000000000000000000000000815260040161179a9061284d565b60405180910390fd5b600282815481106117b7576117b661286d565b5b90600052602060002001549050919050565b6117d16119f1565b73ffffffffffffffffffffffffffffffffffffffff166117ef611026565b73ffffffffffffffffffffffffffffffffffffffff1614611845576040517f08c379a000000000000000000000000000000000000000000000000000000000815260040161183c906128e8565b60405180910390fd5b565b6000806118526119f9565b9050826040015181108061186857508261012001515b15611877576000915050611928565b8260800151836060015161188b91906121cd565b81106118ae578261010001518360e001516118a691906125eb565b915050611928565b60008360600151826118c091906125eb565b905060008460a001519050600081836118d99190612937565b9050600082826118e99190612968565b905060008760800151828960e001516119029190612968565b61190c9190612937565b90508761010001518161191f91906125eb565b96505050505050505b919050565b60008060009054906101000a900473ffffffffffffffffffffffffffffffffffffffff169050816000806101000a81548173ffffffffffffffffffffffffffffffffffffffff021916908373ffffffffffffffffffffffffffffffffffffffff1602179055508173ffffffffffffffffffffffffffffffffffffffff168173ffffffffffffffffffffffffffffffffffffffff167f8be0079c531659141344cd1fd0a4f28419497f9722a3daafe3b4186f6b6457e060405160405180910390a35050565b600033905090565b600042905090565b604051806101400160405280600015158152602001600073ffffffffffffffffffffffffffffffffffffffff1681526020016000815260200160008152602001600081526020016000815260200160001515815260200160008152602001600081526020016000151581525090565b6000819050919050565b611a8381611a70565b82525050565b6000602082019050611a9e6000830184611a7a565b92915050565b600080fd5b600073ffffffffffffffffffffffffffffffffffffffff82169050919050565b6000611ad482611aa9565b9050919050565b611ae481611ac9565b8114611aef57600080fd5b50565b600081359050611b0181611adb565b92915050565b611b1081611a70565b8114611b1b57600080fd5b50565b600081359050611b2d81611b07565b92915050565b60008115159050919050565b611b4881611b33565b8114611b5357600080fd5b50565b600081359050611b6581611b3f565b92915050565b600080600080600080600060e0888a031215611b8a57611b89611aa4565b5b6000611b988a828b01611af2565b9750506020611ba98a828b01611b1e565b9650506040611bba8a828b01611b1e565b9550506060611bcb8a828b01611b1e565b9450506080611bdc8a828b01611b1e565b93505060a0611bed8a828b01611b56565b92505060c0611bfe8a828b01611b1e565b91505092959891949750929550565b600060208284031215611c2357611c22611aa4565b5b6000611c3184828501611b1e565b91505092915050565b600060208284031215611c5057611c4f611aa4565b5b6000611c5e84828501611af2565b91505092915050565b6000819050919050565b611c7a81611c67565b8114611c8557600080fd5b50565b600081359050611c9781611c71565b92915050565b60008060408385031215611cb457611cb3611aa4565b5b6000611cc285828601611c88565b9250506020611cd385828601611b1e565b9150509250929050565b611ce681611b33565b82525050565b611cf581611ac9565b82525050565b611d0481611a70565b82525050565b61014082016000820151611d216000850182611cdd565b506020820151611d346020850182611cec565b506040820151611d476040850182611cfb565b506060820151611d5a6060850182611cfb565b506080820151611d6d6080850182611cfb565b5060a0820151611d8060a0850182611cfb565b5060c0820151611d9360c0850182611cdd565b5060e0820151611da660e0850182611cfb565b50610100820151611dbb610100850182611cfb565b50610120820151611dd0610120850182611cdd565b50505050565b600061014082019050611dec6000830184611d0a565b92915050565b60008060408385031215611e0957611e08611aa4565b5b6000611e1785828601611af2565b9250506020611e2885828601611b1e565b9150509250929050565b611e3b81611c67565b82525050565b6000602082019050611e566000830184611e32565b92915050565b611e6581611ac9565b82525050565b6000602082019050611e806000830184611e5c565b92915050565b600060208284031215611e9c57611e9b611aa4565b5b6000611eaa84828501611c88565b91505092915050565b600082825260208201905092915050565b7f436f696e56657374696e673a2063616e6e6f742063726561746520766573746960008201527f6e67207363686564756c652062656361757365206e6f7420737566666963696560208201527f6e7420746f6b656e730000000000000000000000000000000000000000000000604082015250565b6000611f46604983611eb3565b9150611f5182611ec4565b606082019050919050565b60006020820190508181036000830152611f7581611f39565b9050919050565b7f436f696e56657374696e673a206475726174696f6e206d757374206265203e2060008201527f3000000000000000000000000000000000000000000000000000000000000000602082015250565b6000611fd8602183611eb3565b9150611fe382611f7c565b604082019050919050565b6000602082019050818103600083015261200781611fcb565b9050919050565b7f436f696e56657374696e673a20616d6f756e74206d757374206265203e203000600082015250565b6000612044601f83611eb3565b915061204f8261200e565b602082019050919050565b6000602082019050818103600083015261207381612037565b9050919050565b7f436f696e56657374696e673a20736c696365506572696f645365636f6e64732060008201527f6d757374206265203e3d20310000000000000000000000000000000000000000602082015250565b60006120d6602c83611eb3565b91506120e18261207a565b604082019050919050565b60006020820190508181036000830152612105816120c9565b9050919050565b7f436f696e56657374696e673a206475726174696f6e206d757374206265203e3d60008201527f20636c6966660000000000000000000000000000000000000000000000000000602082015250565b6000612168602683611eb3565b91506121738261210c565b604082019050919050565b600060208201905081810360008301526121978161215b565b9050919050565b7f4e487b7100000000000000000000000000000000000000000000000000000000600052601160045260246000fd5b60006121d882611a70565b91506121e383611a70565b92508282019050808211156121fb576121fa61219e565b5b92915050565b61220a81611b33565b82525050565b600060e082019050612225600083018a611e32565b6122326020830189611a7a565b61223f6040830188611a7a565b61224c6060830187611a7a565b6122596080830186611a7a565b61226660a0830185612201565b61227360c0830184611a7a565b98975050505050505050565b7f5265656e7472616e637947756172643a207265656e7472616e742063616c6c00600082015250565b60006122b5601f83611eb3565b91506122c08261227f565b602082019050919050565b600060208201905081810360008301526122e4816122a8565b9050919050565b7f436f696e56657374696e673a206e6f7420656e6f75676820776974686472617760008201527f61626c652066756e647300000000000000000000000000000000000000000000602082015250565b6000612347602a83611eb3565b9150612352826122eb565b604082019050919050565b600060208201905081810360008301526123768161233a565b9050919050565b7f436f696e56657374696e673a2076657374696e67207363686564756c65206e6f60008201527f7420696e697469616c697a656400000000000000000000000000000000000000602082015250565b60006123d9602d83611eb3565b91506123e48261237d565b604082019050919050565b60006020820190508181036000830152612408816123cc565b9050919050565b7f436f696e56657374696e673a2076657374696e67207363686564756c6520726560008201527f766f6b6564000000000000000000000000000000000000000000000000000000602082015250565b600061246b602583611eb3565b91506124768261240f565b604082019050919050565b6000602082019050818103600083015261249a8161245e565b9050919050565b7f436f696e56657374696e673a206f6e6c792062656e656669636961727920616e60008201527f64206f776e65722063616e2072656c656173652076657374656420746f6b656e60208201527f7300000000000000000000000000000000000000000000000000000000000000604082015250565b6000612523604183611eb3565b915061252e826124a1565b606082019050919050565b6000602082019050818103600083015261255281612516565b9050919050565b7f436f696e56657374696e673a2063616e6e6f742072656c6561736520746f6b6560008201527f6e732c206e6f7420656e6f7567682076657374656420746f6b656e7300000000602082015250565b60006125b5603c83611eb3565b91506125c082612559565b604082019050919050565b600060208201905081810360008301526125e4816125a8565b9050919050565b60006125f682611a70565b915061260183611a70565b92508282039050818111156126195761261861219e565b5b92915050565b60006040820190506126346000830185611e32565b6126416020830184611a7a565b9392505050565b60008160601b9050919050565b600061266082612648565b9050919050565b600061267282612655565b9050919050565b61268a61268582611ac9565b612667565b82525050565b6000819050919050565b6126ab6126a682611a70565b612690565b82525050565b60006126bd8285612679565b6014820191506126cd828461269a565b6020820191508190509392505050565b7f436f696e56657374696e673a2076657374696e67206973206e6f74207265766f60008201527f6361626c65000000000000000000000000000000000000000000000000000000602082015250565b6000612739602583611eb3565b9150612744826126dd565b604082019050919050565b600060208201905081810360008301526127688161272c565b9050919050565b7f4f776e61626c653a206e6577206f776e657220697320746865207a65726f206160008201527f6464726573730000000000000000000000000000000000000000000000000000602082015250565b60006127cb602683611eb3565b91506127d68261276f565b604082019050919050565b600060208201905081810360008301526127fa816127be565b9050919050565b7f436f696e56657374696e673a20696e646578206f7574206f6620626f756e6473600082015250565b6000612837602083611eb3565b915061284282612801565b602082019050919050565b600060208201905081810360008301526128668161282a565b9050919050565b7f4e487b7100000000000000000000000000000000000000000000000000000000600052603260045260246000fd5b7f4f776e61626c653a2063616c6c6572206973206e6f7420746865206f776e6572600082015250565b60006128d2602083611eb3565b91506128dd8261289c565b602082019050919050565b60006020820190508181036000830152612901816128c5565b9050919050565b7f4e487b7100000000000000000000000000000000000000000000000000000000600052601260045260246000fd5b600061294282611a70565b915061294d83611a70565b92508261295d5761295c612908565b5b828204905092915050565b600061297382611a70565b915061297e83611a70565b925082820261298c81611a70565b915082820484148315176129a3576129a261219e565b5b509291505056fea2646970667358221220db777e13e54946c8f5168472f9c40371d671fad079b28a96e1b08dfc22fdb9f264736f6c63430008130033"
}